:100000000C9456000C946B000C946B000C946B00D9
:100010000C946B000C946B000C946B000C946B00B4
:100020000C946B000C946B000C946B000C946B00A4
:100030000C946B000C946B000C946B000C946B0094
:100040000C946B000C946B000C946B000C946B0084
:100050000C946B000C946B000C946B000C946B0074
:100060000C946B000C946B000C946B000C946B0064
:100070000C946B000C946B000C946B000C946B0054
:100080000C946B000C946B000C946B000C946B0044
:100090000C946B000C946B000C946B000C946B0034
:1000A0000C946B000C946B000C946B0011241FBE1D
:1000B000CFEFDAE0DEBFCDBF11E0A0E0B1E0E6EDCA
:1000C000F3E002C005900D92AA31B107D9F70E9462
:1000D000C1010C94E9010C94000080EF84B985B94A
:1000E0008FE084B985B1806F85B985B1807F85B98E
:1000F00089B1807F803B59F020F4803751F484E04F
:100100000BC0803D41F0803E21F481E005C083E0DA
:1001100003C080E001C082E09FE094B995B920EF70
:1001200024B995B9E3B1EF70E750E830C8F4F0E0D6
:10013000E050FF4F9081913049F4813059F1823085
:1001400059F1833059F1843059F42AC0923051F476
:10015000813041F1823041F1833041F1843041F10D
:1001600080E00895933051F4813021F1823021F103
:10017000833021F18430A1F783E40895943081F72E
:100180008130F1F08230F1F08330F1F0843041F7CA
:1001900084E4089581E3089582E3089583E3089554
:1001A00081E4089584E3089585E3089586E308953E
:1001B00082E4089587E3089588E3089589E3089524
:1001C0008AE2089580E3089583E20895209A85B530
:1001D000826085BD08954FEF50E02FEF30E061154C
:1001E000710509F1DB016531710510F0A4E1B0E0A2
:1001F0006A1B7B0BFC01A80FB91F8191280F311DD1
:10020000420F531FEA17FB07C1F7CF01E32FFF2768
:10021000DF01A20FB11D9D01E52FFF27DF01A40F14
:10022000B11DAD01DCCF632F7727852F9927840F70
:10023000911D982F8827620F711D862B972B08958B
:1002400020E030E090E041E0281739076CF456B523
:10025000583CE8F3289816BC56B5583CE8F3289A61
:1002600046BD2F5F3F4FF0CF089520E030E090E093
:1002700041E0281739076CF456B5583CE8F3289A42
:1002800016BC56B5583CE8F3289846BD2F5F3F4F43
:10029000F0CF08958F929F92AF92BF92CF92DF924C
:1002A000EF92FF92CF93DF93C7E0D0E0C12CD12C27
:1002B0007601C394882E912CA12CB12CB701A601F4
:1002C0000C2E04C0440F551F661F771F0A94D2F7E7
:1002D000482159216A217B210C2E04C0769567950F
:1002E000579547950A94D2F781E0452B462B472B2B
:1002F00019F00E94200102C00E9435012197F0F6FA
:10030000DF91CF91FF90EF90DF90CF90BF90AF90B3
:100310009F908F900895DF92EF92FF920F931F931B
:10032000CF93DF938C01EB010E94EB00E82ED92ED6
:10033000BBE4FB2E80E00E944A01FA94D9F783E0E7
:100340000E944A012F2D30E02C173D0740F4F801A0
:10035000E20FF31F80810E944A01F394F3CF8D2DA9
:100360000E944A018E2D0E944A0186B5883CE8F31E
:100370002898DF91CF911F910F91FF90EF90DF9020
:100380000895CF93DF93CDB7DEB762970FB6F89499
:10039000DEBF0FBECDBF82E1E8E0F1E0DE011196E5
:1003A00001900D928A95E1F70E94E6000E946D008F
:1003B0006CE070E0CE0101960E948B0180E090E03D
:1003C00062960FB6F894DEBF0FBECDBFDF91CF911E
:0603D0000895F894FFCF30
:1003D6000400000003000201446173206973742065
:0A03E60065696E20746578742000CC
:00000001FF
