:100000000C9456000C9473000C9473000C947300C1
:100010000C9473000C9473000C9473000C94730094
:100020000C9473000C94C8020C9473000C9473002D
:100030000C9473000C9473000C9473000C94730074
:100040000C9473000C9473000C9473000C94730064
:100050000C949A020C94D6020C9473000C947300C6
:100060000C9473000C9473000C9473000C94730044
:100070000C9473000C9473000C9473000C94730034
:100080000C9473000C9473000C9473000C94730024
:100090000C9473000C9473000C9473000C94730014
:1000A0000C9473000C9473000C94730011241FBE05
:1000B000CFEFDAE0DEBFCDBF11E0A0E0B1E0EEE4CB
:1000C000F7E002C005900D92A230B107D9F721E008
:1000D000A2E0B1E001C01D92AA30B207E1F70E9490
:1000E00044030C94A5030C94000020E030E0281792
:1000F000390749F0EFE9FFE03197F1F700C0000060
:100100002F5F3F4FF4CF08955B9A85E090E00E9407
:1001100075005B9885E090E00C9475008AB18C6066
:100120008AB98AB1806F8AB982E390E00E94750033
:100130008BB1837F8BB98BB18F738BB98BB180639C
:100140008BB90E9484008BB18F738BB98BB18063A4
:100150008BB90E9484008BB18F738BB98BB1806394
:100160008BB90E9484008BB18F728BB95D9A0E940B
:1001700084008BB18F728BB95D9A0E9484005F9A64
:100180008BB18F788BB90E9484008BB18F708BB943
:100190000E9484005F9A8BB18F788BB90E94840093
:1001A0008BB18F708BB90E9484008BB18F718BB92A
:1001B0005C9A0E9484008BB18F708BB90E9484007E
:1001C0008BB18F738BB98BB180638BB90E94840024
:1001D0008BB18F708BB90E9484008BB1806F8BB90B
:1001E0000C948400CF93C82F5A9A87FF02C05F9A5D
:1001F00001C05F98C6FF02C05E9A01C05E98C5FF4D
:1002000002C05D9A01C05D98C4FF02C05C9A01C043
:100210005C980E94840081E090E00E947500C3FF1A
:1002200002C05F9A01C05F98C2FF02C05E9A01C01F
:100230005E98C1FF02C05D9A01C05D98C0FF02C018
:100240005C9A01C05C980E94840081E090E0CF91AC
:100250000C947500CF93C82F5A9887FF02C05F9AFD
:1002600001C05F98C6FF02C05E9A01C05E98C5FFDC
:1002700002C05D9A01C05D98C4FF02C05C9A01C0D3
:100280005C980E94840081E090E00E947500C3FFAA
:1002900002C05F9A01C05F98C2FF02C05E9A01C0AF
:1002A0005E98C1FF02C05D9A01C05D98C0FF02C0A8
:1002B0005C9A01C05C980E94840081E090E0CF913C
:1002C0000C947500CF93DF93EC018991882319F08A
:1002D0000E94F200FACFDF91CF910895CF93DF9380
:1002E000FC0180819F0120583F4FD9019C915E2FD6
:1002F000CE2FDF2FDF0111964A2F451B491718F427
:100300004C914993F8CF9150D9019C93E90FF11D7D
:100310001082DF91CF910895FC01E058FF4F2081BA
:1003200027FD07C031E0320F3083FC01E20FF11DE1
:10033000608308954FEF50E02FEF30E061157105B5
:1003400009F1DB016531710510F0A4E1B0E06A1B31
:100350007B0BFC01A80FB91F8191280F311D420FA3
:10036000531FEA17FB07C1F7CF01E32FFF27DF0178
:10037000A20FB11D9D01E52FFF27DF01A40FB11DC5
:10038000AD01DCCF632F7727852F9927840F911D2F
:10039000982F8827620F711D862B972B0895109236
:1003A000050160910601709107018091080190910B
:1003B000090108952398579AE8E6F0E0808181606A
:1003C0008083EBE6F0E0808182608083E0E8F0E00B
:1003D00080818D608083EEE6F0E0808181608083A3
:1003E00084E687BD80818260808385B5826085BD1B
:1003F00008955F9A7894109285001092840016BC3C
:1004000081E08093040183E0809300011092060153
:1004100010920701109208011092090120E030E0CB
:1004200043E052E0809105018823E1F31092050139
:100430008091060190910701A0910801B0910901F6
:10044000409300018C3021F421110FC03F5FEACFAF
:10045000833049F4363048F02F5F223018F38FE1B3
:100460008093000108955093000120E030E0DACF3E
:1004700010920401EEE6F0E080818D7F80835F982A
:1004800008954F925F926F927F92BF92CF92DF92C8
:10049000EF92FF920F931F93CF93DF93B0900301DE
:1004A000E7E0F0E0CCE1D0E0412C512C3201439464
:1004B0006B017C010C2E04C0F694E794D794C7948A
:1004C0000A94D2F72C2D2F70233061F4730162014E
:1004D0000E2E04C0CC0CDD1CEE1CFF1C0A94D2F7BF
:1004E000BC2814C02C3021F0B092030180E014C06D
:1004F000730162010E2E04C0CC0CDD1CEE1CFF1C2F
:100500000A94D2F7970186010095B022249731977B
:1005100078F6B092030181E0DF91CF911F910F91A6
:10052000FF90EF90DF90CF90BF907F906F905F90A3
:100530004F9008951F920F920FB60F9211242F9390
:100540003F934F935F936F937F938F939F93AF935B
:10055000BF93EF93FF93809102018F5F8D3418F466
:100560008093020104C0109202010E943802FF91A0
:10057000EF91BF91AF919F918F917F916F915F911B
:100580004F913F912F910F900FBE0F901F90189594
:100590001F920F920FB60F9211248F9384E386BDA2
:1005A0008F910F900FBE0F901F9018951F920F9272
:1005B0000FB60F9211242F934F935F936F937F93F6
:1005C0008F939F93AF93BF9381E01B9B1BC086BD0E
:1005D0004091060150910701609108017091090155
:1005E0002091000181E090E0A0E0B0E004C0880F1D
:1005F000991FAA1FBB1F2A95D2F7842B952BA62BD8
:10060000B72B1EC086BD4091060150910701609135
:100610000801709109012091000181E090E0A0E0C3
:10062000B0E004C0880F991FAA1FBB1F2A95D2F7FC
:1006300080959095A095B09584239523A623B72304
:100640008093060190930701A0930801B0930901DC
:10065000809100019FEF980F90930001811106C0D7
:1006600081E0809305018FE180930001BF91AF91FC
:100670009F918F917F916F915F914F912F910F90EB
:100680000FBE0F901F9018950F931F93CF93DF937A
:10069000CDB7DEB7C158D1090FB6F894DEBF0FBE93
:1006A000CDBF8E010F5F1F4F81E8F80111928A952F
:1006B000E9F70E948E000E94DA010E94F9019091F0
:1006C0000401911101C0FFCF809105018823C9F376
:1006D0001092050160910601709107018091080157
:1006E000909109010E944102882349F3609103011E
:1006F000C8010E948C01CF57DF4F8881C158D0407C
:100700008E30E9F60E9438026CE070E0C8010E9469
:100710009A015F982D8530E0322F22274E85242BB9
:100720008217930709F45F9AC8010E94620180E072
:1007300090E0CF57DF4F0FB6F894DEBF0FBECDBFAE
:0E074000DF91CF911F910F910895F894FFCF94
:02074E001F008A
:00000001FF
