:100000000C9456000C9460000C9460000C946000FA
:100010000C9460000C9460000C9460000C946000E0
:100020000C9460000C9460000C9460000C946000D0
:100030000C9460000C9460000C9460000C946000C0
:100040000C9460000C9460000C9460000C946000B0
:100050000C9460000C9460000C9460000C946000A0
:100060000C9460000C9460000C9460000C94600090
:100070000C9460000C9460000C9460000C94600080
:100080000C9460000C9460000C9460000C94600070
:100090000C9460000C9460000C9460000C94600060
:1000A0000C9460000C9460000C94600011241FBE3E
:1000B000CFEFDAE0DEBFCDBF0E94E0000C94050177
:1000C0000C9400001092B90088E18093B800089564
:1000D00094EA9093BC009091BC0097FFFCCF909164
:1000E000B900987F983021F0903111F081E00895A7
:1000F0008093BB0084E88093BC008091BC0087FFA4
:10010000FCCF8091B900887F883111F0803471F77D
:1001100080E0089524EA34E844E92093BC009091FB
:10012000BC0097FFFCCF9091B900987F983011F0F8
:10013000903199F78093BB003093BC009091BC0044
:1001400097FFFCCF9091B900987F903211F09835CD
:1001500039F44093BC009091BC0094FDFCCFDDCFFE
:1001600008950C94680084E98093BC008091BC00E1
:1001700084FDFCCF08958093BB0084E88093BC008D
:100180008091BC0087FFFCCF9091B900987F81E0FF
:10019000983209F480E0089584EC8093BC0080914B
:1001A000BC0087FFFCCF8091BB00089584E880935A
:1001B000BC008091BC0087FFFCCF8091BB000895FC
:1001C0000E946200C0E0D0E0CF3FD10509F06CF49E
:1001D00080E90E94680080E40E94BB008C2F0E948E
:1001E000BB000E94B3002196EFCFCFEFD0E080E9B3
:1001F0000E94680080E40E94BB008C2F0E94BB001C
:0E0200000E94B300219798F7DDCFF894FFCF4E
:00000001FF
