:100000000C9456000C9473000C9473000C947300C1
:100010000C9473000C9473000C9473000C94730094
:100020000C9473000C9473000C9473000C94730084
:100030000C9473000C9473000C9473000C94730074
:100040000C9473000C9473000C9473000C94730064
:100050000C9473000C94CB000C94D6000C94E1002B
:100060000C9473000C9473000C9473000C94730044
:100070000C9473000C9473000C9473000C94730034
:100080000C9473000C9473000C9473000C94730024
:100090000C9473000C9473000C9475000C94730012
:1000A0000C9473000C9473000C94730011241FBE05
:1000B000CFEFDAE0DEBFCDBF11E0A0E0B1E0E0E6D7
:1000C000F2E002C005900D92A030B107D9F711E01F
:1000D000A0E0B1E001C01D92A030B107E1F70E949D
:1000E000F5000C942E010C9400001F920F920FB695
:1000F0000F9211248F939F931092BF001092BE0015
:1001000098B180E4892788B99F918F910F900FBE95
:100110000F901F901895209A549A3E9A55985D9A80
:10012000239A529A2B9A5A9AE2E7F0E080818064EF
:10013000808382E58093CF00E1ECF0E080818160F4
:10014000808378940895E1E6F0E080E8808381E0A0
:100150008083269A509A859A84B5816084BD84B53F
:10016000826084BD85B5877F85BD84B58F7B84BD66
:1001700084B5806884BD84B58F7E84BD84B580627B
:1001800084BD85B5826085BDEEE6F0E08081876044
:100190008083789408951F920F920FB60F921124C6
:1001A0002E980F900FBE0F901F9018951F920F92D0
:1001B0000FB60F92112458980F900FBE0F901F90FA
:1001C00018951F920F920FB60F9211242E9A589ADB
:1001D0000F900FBE0F901F90189568BD87BD4130DE
:1001E00011F48D9A08958D98089585B7806885BF1C
:1001F00085B7806885BF0E94A3000E948B005C9831
:10020000289A4D9B07C02A9880E860E840E00E9449
:10021000ED0006C02A9A85E06FEF41E00E94ED00F4
:100220008FE19EE40197F1F700C000005C9A2898E6
:100230004D9B07C05A9880E860E840E00E94ED00BE
:1002400006C05A9A8FEF65E041E00E94ED008FE111
:100250009EE40197F1F700C00000D1CFF894FFCFE2
:00000001FF
