:100000000C9456000C9460000C9460000C946000FA
:100010000C9460000C9460000C9460000C946000E0
:100020000C9460000C9460000C9460000C946000D0
:100030000C9460000C9460000C9460000C946000C0
:100040000C9460000C9460000C9460000C946000B0
:100050000C9460000C9460000C9460000C946000A0
:100060000C9460000C9460000C9460000C94600090
:100070000C9460000C9460000C9460000C94600080
:100080000C9460000C9460000C9460000C94600070
:100090000C9460000C9460000C9460000C94600060
:1000A0000C9460000C9460000C94600011241FBE3E
:1000B000CFEFDAE0DEBFCDBF0E945B010C9462019E
:1000C0000C94000020E030E02817390749F0E7EBF6
:1000D000FBE03197F1F700C000002F5F3F4FF4CFF6
:1000E00008952C9A85E090E00E9462002C9885E0AB
:1000F00090E00C94620084B1806784B984B18F6011
:1001000084B982E390E00E94620085B18F7885B95E
:1001100085B1837F85B985B1836085B90E947100FF
:1001200085B1837F85B985B1836085B90E947100EF
:1001300085B1837F85B985B1836085B90E947100DF
:1001400085B1827F85B9299A0E94710085B1827F2D
:1001500085B9299A0E9471002B9A85B1887F85B94B
:100160000E94710085B1807F85B90E9471002B9A31
:1001700085B1887F85B90E94710085B1807F85B97E
:100180000E94710085B1817F85B9289A0E94710013
:1001900085B1807F85B90E94710085B1837F85B963
:1001A00085B1836085B90E94710085B1807F85B972
:1001B0000E94710085B18F6085B90C947100CF9356
:1001C000C82F2E9A87FF02C02B9A01C02B98C6FF1A
:1001D00002C02A9A01C02A98C5FF02C0299A01C00C
:1001E0002998C4FF02C0289A01C028980E94710073
:1001F00081E090E00E946200C3FF02C02B9A01C020
:100200002B98C2FF02C02A9A01C02A98C1FF02C0DF
:10021000299A01C02998C0FF02C0289A01C02898D5
:100220000E94710081E090E0CF910C946200CF9326
:10023000C82F2E9887FF02C02B9A01C02B98C6FFAB
:1002400002C02A9A01C02A98C5FF02C0299A01C09B
:100250002998C4FF02C0289A01C028980E94710002
:1002600081E090E00E946200C3FF02C02B9A01C0AF
:100270002B98C2FF02C02A9A01C02A98C1FF02C06F
:10028000299A01C02998C0FF02C0289A01C0289865
:100290000E94710081E090E0CF910C946200CF93B6
:1002A000DF93EC018991882319F00E94DF00FACFD7
:1002B000DF91CF9108958FEF84B90E947B0080E099
:0802C00090E00895F894FFCFCF
:00000001FF
