:100000000C9456000C9473000C9473000C947300C1
:100010000C9473000C9473000C9473000C94730094
:100020000C9473000C9473000C9473000C94730084
:100030000C9473000C9473000C9473000C94730074
:100040000C9410020C9473000C9473000C947300C5
:100050000C9473000C9473000C9473000C94730054
:100060000C9473000C9473000C9473000C94730044
:100070000C9473000C9473000C9473000C946B023A
:100080000C9473000C9473000C9473000C94730024
:100090000C9473000C9473000C9473000C94730014
:1000A0000C9473000C9473000C94730011241FBE05
:1000B000CFEFDAE0DEBFCDBF11E0A0E0B1E0E0E1DC
:1000C000F6E002C005900D92A030B107D9F711E01B
:1000D000A0E0B1E001C01D92AE30B107E1F70E948F
:1000E000C6020C9406030C94000085B7806885BF97
:1000F00085B7806885BFE1E6F0E080E8808381E035
:1001000080830895E0ECF0E0808181628083E2ECFE
:10011000F0E08081896080830895E0ECF0E08081E8
:1001200081628083E2ECF0E0808189608083E1EC91
:10013000F0E010821092C3001092C4001092BF0031
:100140001092BE001092D4001092D0001092D200F3
:1001500080818160808380910C0190910D01806489
:1001600090930D0180930C0108951092C10010929C
:10017000C0001092C20080910C0190910D018F7B04
:1001800090930D0180930C0108951092800080E8F7
:1001900080938100109282001092900080939100D1
:1001A0001092920008951092020110920601E1E768
:1001B000F0E0808180628083109297001092960018
:1001C0001092950010929400E1E9F0E08081846043
:1001D0008083C59A08951092030110920701EFE6FB
:1001E000F0E0808180628083109287001092860008
:1001F0001092850010928400E1E8F0E08081846034
:100200008083B59A0895E1E9F0E08081887F80835A
:100210000895E1E8F0E08081887F8083089516BC2E
:1002200017BC84B5836484BD85B5886085BD089599
:1002300084B18F6D84B985B18F6185B980B3806ECB
:1002400080BB11BA8AB18C6E8AB95D9A3E9A0E94BF
:1002500082000E94C5000E940F017894089587BD16
:1002600085B5846085BD08950895EF920F931F931F
:10027000CF93DF93D62FC42F122F823031F40E94F8
:10028000B5002E9A8F98469817C0813059F4809106
:100290000C0190910D0186FD02C00E948D008F9A85
:1002A00046980AC080910C0190910D0186FD02C014
:1002B0000E948D008F98469AC23031F40E94B5009A
:1002C0005F9A8D988E9817C0C13059F480910C01B7
:1002D00090910D0186FD02C00E948D008D9A8E982E
:1002E0000AC080910C0190910D0186FD02C00E9410
:1002F0008D008D988E9A80910C0190910D0186FF52
:100300003FC0D093D0001093D20000930501E0923B
:100310000401DD2361F00E94EB0080910C019091BB
:100320000D018F7E90930D0180930C0109C0809187
:100330000C0190910D01806190930D0180930C014F
:10034000112361F00E94D30080910C0190910D0166
:100350008F7D90930D0180930C0109C080910C0159
:1003600090910D01806290930D0180930C0180911A
:100370000C0190910D01826090930D0180930C010E
:10038000DF91CF911F910F91EF90089580910C0113
:1003900090910D0184FF11C080910C0190910D018D
:1003A00085FF0DC080910C0190910D018D7F909380
:1003B0000D0180930C0181E0089580E0089580E0B4
:1003C00008950F931F93CF93DF93C82FD0E01C168F
:1003D0001D060CF500E010E088E090E00E942F017F
:1003E0008FEF90E7A2E081509040A040E1F700C07D
:1003F000000080E090E00E942F018FEF90E7A2E0E4
:1004000081509040A040E1F700C000000F5F1F4FF7
:100410000C171D070CF3DF91CF911F910F910895D9
:100420001F920F920FB60F9211248F939F93EF9309
:10043000FF938AE18A95F1F700C080910C019091B9
:100440000D0184FD3EC04C993CC08091030188237E
:1004500069F4809107018F5F8093070181E08093A9
:100460000301109285001092840013C080918600D1
:100470009091870090930B0180930A01809107016E
:100480008F5F8093070110920301109285001092F4
:1004900084009091070180910501981790F0809158
:1004A0000C0190910D01806190930D0180930C01DE
:1004B000E1E8F0E08081887F808310926F001092E5
:1004C000D000B59AFF91EF919F918F910F900FBE41
:1004D0000F901F9018951F920F920FB60F92112434
:1004E0008F939F93EF93FF938AE18A95F1F700C072
:1004F00080910C0190910D0185FD3EC037993CC063
:1005000080910201882369F4809106018F5F8093B6
:10051000060181E0809302011092950010929400F0
:1005200013C0809196009091970090930901809359
:100530000801809106018F5F8093060110920201ED
:100540001092950010929400909106018091040100
:10055000981790F080910C0190910D01806290931A
:100560000D0180930C01E1E9F0E08081887F8083B8
:10057000109271001092D200C59AFF91EF919F9155
:100580008F910F900FBE0F901F9018950E947500CD
:100590000E9418018FEF99E6A8E181509040A04099
:1005A000E1F700C0000085E00E94E1018FEF93EDCC
:1005B000A0E381509040A040E1F700C000008AEF26
:1005C0008093010182EF80930001609100012091EE
:1005D000010181E041E00EE110E00F2EFEE1EF2E7F
:1005E000FF24F02D0E943501C8E00E94C601882337
:1005F000E1F38BB18C278BB98FEF91EEA4E08150A2
:100600009040A040E1F700C00000EFCFF894FFCF8A
:00000001FF
