:100000000C9456000C9473000C9473000C947300C1
:100010000C9473000C9473000C9473000C94730094
:100020000C9473000C9473000C9473000C94730084
:100030000C9473000C9473000C9473000C94730074
:100040000C9473000C9473000C9473000C94730064
:100050000C9473000C9473000C9473000C94730054
:100060000C9473000C94BB000C9473000C947300FC
:100070000C9473000C9473000C9473000C94730034
:100080000C9473000C9473000C9473000C94730024
:100090000C9473000C9473000C9473000C94730014
:1000A0000C9473000C9473000C94730011241FBE05
:1000B000CFEFDAE0DEBFCDBF11E0A0E0B1E0EAE9CA
:1000C000F2E002C005900D92AE32B107D9F721E0FF
:1000D000AEE2B1E001C01D92A835B207E1F70E947F
:1000E00005010C944B010C9400008091C80087FF1F
:1000F000FCCF8091CE0008951092CD0087E08093D0
:10010000CC00E9ECF0E0808188698083EAECF0E0E3
:100110008081866080830895CF92DF92FF920F9353
:100120001F93CF93DF931F92CDB7DEB7182F062F03
:1001300099830E947500F12EC12E9981D92E10E06D
:10014000015011092C2D2F198E3259F4F60110820D
:100150000F90DF91CF911F910F91FF90DF90CF9083
:10016000089530E0201731078CF7F60181936F0175
:100170000E947500E7CF1F920F920FB60F921124C5
:100180002F933F934F935F936F937F938F939F939F
:10019000AF93BF93EF93FF9385E790E080932F0198
:1001A000813309F45F9880912F01823309F45F9ABB
:1001B00080912F0181538230B8F068E280E391E0B2
:1001C0000E948C0060E071E080E391E00E944201B7
:1001D000892B09F45F9864E071E080E391E00E946C
:1001E0004201892B09F45F9AFF91EF91BF91AF9182
:1001F0009F918F917F916F915F914F913F912F913F
:100200000F900FBE0F901F901895CF93DF93CDB72F
:10021000DEB7A5970FB6F894DEBF0FBECDBF579AD5
:100220005F9A80E880936100109261000E947C00D8
:10023000789483E48093CE0085E2E8E0F1E0DE018B
:10024000119601900D928A95E1F780912E01E1E0DF
:10025000F0E0EC0FFD1FE80FF11D8081882361F0B5
:100260009091C80095FFFCCF8093CE0080912E0125
:100270008F5F80932E01E9CF68E280E391E00E94D6
:100280008C00FFCFFB01DC018D91019080190110E2
:0A029000D9F3990B0895F894FFCFFD
:10029A0065696E00617573000A0D0A0D576972204F
:1002AA00736F6C6C74656E20696D206C61626F721D
:0E02BA00207365696E2E2E2E0A0D0A0D0000AF
:00000001FF
