:100000000C9456000C9460000C9460000C946000FA
:100010000C9460000C9460000C9460000C946000E0
:100020000C9460000C9460000C9460000C946000D0
:100030000C9460000C9460000C9460000C946000C0
:100040000C9460000C9460000C9460000C946000B0
:100050000C9460000C9460000C9460000C946000A0
:100060000C9460000C9460000C9460000C94600090
:100070000C9460000C9460000C9460000C94600080
:100080000C9460000C9460000C9460000C94600070
:100090000C9460000C9460000C9460000C94600060
:1000A0000C9460000C9460000C94600011241FBE3E
:1000B000CFEFDAE0DEBFCDBF0E9481000C94BA0022
:1000C0000C9400002A98299898E020E8322F3823D1
:1000D00011F0289A01C02898299A299826959150BC
:1000E000A9F788E090E8292F262311F0289A01C06B
:1000F0002898299A299896958150A9F728982A9A9C
:10010000089580E88093610082E0809361002FEF82
:1001100084E39CE0215080409040E1F700C0000063
:1001200084B1876084B961E08CE00E9462006FEF67
:100130008AE00E94620061E08BE00E9462006FEF43
:1001400089E00E94620060E081E00E946200C0E0FD
:1001500060E86C0F81E00E9462002FEF84E39CE076
:10016000215080409040E1F700C00000CF5FCA30CE
:0801700078F3EDCFF894FFCF06
:00000001FF
