:100000000C9456000C9473000C9473000C947300C1
:100010000C9473000C9473000C9473000C94730094
:100020000C9473000C9473000C9473000C94730084
:100030000C9473000C9473000C9473000C94730074
:100040000C9473000C94EA000C9473000C947300ED
:100050000C9473000C9497000C94A2000C94AD00C7
:100060000C9473000C9473000C9473000C94730044
:100070000C9473000C9473000C9473000C94730034
:100080000C9412010C9473000C9473000C94730084
:100090000C9473000C9473000C9473000C94730014
:1000A0000C9473000C9473000C94730011241FBE05
:1000B000CFEFDAE0DEBFCDBF11E0A0E0B1E0E8E7CE
:1000C000F3E002C005900D92A030B107D9F711E01E
:1000D000A0E0B1E001C01D92A030B107E1F70E949D
:1000E00034010C94BA010C940000269A509A859A17
:1000F00084B5816084BD84B5826084BD85B5877F09
:1001000085BD84B58F7B84BD84B5806884BD84B58E
:100110008F7E84BD84B5806284BD85B5826085BDD7
:10012000EEE6F0E0808187608083789408951F92E6
:100130000F920FB60F9211242E980F900FBE0F90B2
:100140001F9018951F920F920FB60F921124589876
:100150000F900FBE0F901F9018951F920F920FB621
:100160000F9211242E9A589A0F900FBE0F901F9045
:100170001895529A239A219AE1E7F0E080818260F3
:1001800080838DE093E09093990080939800789419
:1001900085B18A6085B95A9A0895259AEFE6F0E00C
:1001A0008081826080838DE093E0909389008093CA
:1001B000880078940895813031F4E1E8F0E080819E
:1001C000856080830895E1E8F0E08081887F808306
:1001D0002D9808951F920F920FB60F9211248F93AE
:1001E0009F93109285001092840095B180E2892738
:1001F00085B99F918F910F900FBE0F901F9018950A
:10020000813031F4E1E9F0E08081856080830895F8
:10021000E1E9F0E08081887F808385B18A6085B9DB
:100220005A9A08951F920F920FB60F9211248F932E
:100230009F93109295001092940095B18AE08927BF
:1002400085B99BB184E089278BB99F918F910F90DD
:100250000FBE0F901F90189568BD87BD413011F4F7
:100260008D9A08958D98089585B7806885BF85B764
:10027000806885BFE1E6F0E080E8808381E08083EC
:100280000E9475000E94CD000E94B90081E00E948A
:1002900000018FEF6FEF41E00E942C018FEF99E694
:1002A000A8E181509040A040E1F700C0000080E844
:1002B00060E840E00E942C018FEF94E3ACE08150B5
:1002C0009040A040E1F700C0000080E060E041E025
:1002D0000E942C018FEF99E6A8E181509040A04048
:1002E000E1F700C0000080E860E840E00E942C01D7
:1002F0008FEF94E3ACE081509040A040E1F700C064
:1003000000008FEF60E041E00E942C018FEF9DE341
:10031000A9E481509040A040E1F700C0000080E8CF
:1003200060E840E00E942C018FEF94E3ACE0815044
:100330009040A040E1F700C0000085E06FEF41E091
:100340000E942C018FEF9DE3A9E481509040A040D2
:10035000E1F700C0000080E860E840E00E942C0166
:100360008FEF94E3ACE081509040A040E1F700C0F3
:0803700000008FCFF894FFCFCD
:00000001FF
