:100000000C9456000C9468000C9468000C946800E2
:100010000C9468000C9468000C9468000C946800C0
:100020000C9468000C9468000C9468000C946800B0
:100030000C9468000C9468000C9468000C946800A0
:100040000C9481000C9468000C9468000C94680077
:100050000C946A000C9468000C9468000C9468007E
:100060000C9468000C9468000C9468000C94680070
:100070000C9468000C9468000C9468000C94680060
:100080000C9468000C9468000C9468000C94680050
:100090000C9468000C9468000C9468000C94680040
:1000A0000C9468000C9468000C94680011241FBE26
:1000B000CFEFDAE0DEBFCDBF21E0A0E0B1E001C0CC
:1000C0001D92AA31B207E1F70E94DB000C944401B3
:1000D0000C9400001F920F920FB60F9211248F9371
:1000E0009F9380910C0190910D01019690930D01C9
:1000F00080930C019F918F910F900FBE0F901F90D6
:1001000018951F920F920FB60F9211240F931F9301
:100110002F933F934F935F936F937F938F939F930F
:10012000AF93BF93509186004091870047FD0DC06B
:10013000B09B0BC080910C0190910D0101969093A2
:100140000D0180930C0181E086BB20910C01309160
:100150000D01852F942FD90140910001509101018B
:1001600060910201709103018C019D01041B150B2C
:10017000260B370B009308011093090120930A0105
:1001800030930B018093000190930101A093020131
:10019000B0930301BF91AF919F918F917F916F9128
:1001A0005F914F913F912F911F910F910F900FBE33
:1001B0000F901F90189580E8809361001092610065
:1001C0008FEF84B93F98479A8AB91092800081ECEA
:1001D0008093810081E280936F0086BB10920801BA
:1001E0001092090110920A0110920B0110920D0158
:1001F00010920C0183B7817F83BF78942FEF83B770
:10020000816083BF7894889583B78E7F83BFF8948D
:100210008091080190910901A0910A01B0910B0110
:100220008093040190930501A0930601B093070108
:10023000109208011092090110920A0110920B010C
:1002400078948091080190910901A0910A01B091E0
:100250000B01892B8A2B8B2B19F425B92BB9CFCF06
:100260008091040190910501A0910601B0910701D0
:10027000892B8A2B8B2B09F4C2CF809186008BB9F6
:0C0280008091870085B9BBCFF894FFCFB8
:00000001FF
