:100000000C9456000C9460000C9460000C946000FA
:100010000C9460000C9460000C9460000C946000E0
:100020000C9460000C9460000C9460000C946000D0
:100030000C9460000C9460000C9460000C946000C0
:100040000C9460000C9460000C9460000C946000B0
:100050000C9460000C9460000C9460000C946000A0
:100060000C9460000C9460000C9460000C94600090
:100070000C9460000C9460000C9460000C94600080
:100080000C9460000C9460000C9460000C94600070
:100090000C9460000C9460000C9460000C94600060
:1000A0000C9460000C9460000C94600011241FBE3E
:1000B000CFEFDAE0DEBFCDBF0E9481000C9491004B
:1000C0000C9400002A98299898E020E8322F3823D1
:1000D00011F0289A01C02898299A299826959150BC
:1000E000A9F788E090E8292F262311F0289A01C06B
:1000F0002898299A299896958150A9F728982A9A9C
:100100000895E1E6F0E080E8808381E0808384B1B7
:10011000876084B967E087E00E94620080E090E039
:060120000895F894FFCFE2
:00000001FF
