:100000000C9456000C9473000C9473000C947300C1
:100010000C9473000C9473000C9473000C94730094
:100020000C9473000C9473000C9473000C94730084
:100030000C9473000C9473000C9473000C94730074
:100040000C9473000C9473000C9473000C94730064
:100050000C9473000C9473000C9473000C94730054
:100060000C9473000C9473000C9473000C94730044
:100070000C9473000C9473000C9473000C94730034
:100080000C9473000C9473000C9473000C94730024
:100090000C9473000C9473000C9473000C94730014
:1000A0000C9473000C9473000C94730011241FBE05
:1000B000CFEFDAE0DEBFCDBF11E0A0E0B1E0E6E2D5
:1000C000F1E002C005900D92A030B107D9F711E020
:1000D000A0E0B1E001C01D92A030B107E1F70E949D
:1000E00075000C9491000C94000085B7806885BF62
:1000F00085B7806885BF8FEF84B987B98AB98DB914
:1001000080BB85B1809585B988B1809588B98BB160
:1001100080958BB98EB180958EB981B3809581BB66
:06012000F0CFF894FFCFC0
:00000001FF
