S00F0000454C526F626F742E737265637E
S11300000C9456000C9468000C9468000C946800DE
S11300100C9468000C9468000C9468000C946800BC
S11300200C9468000C9468000C9468000C946800AC
S11300300C9468000C9468000C9468000C9468009C
S11300400C94F3010C9468000C9468000C94680000
S11300500C9468000C9468000C9468000C9468007C
S11300600C9468000C9468000C9468000C9468006C
S11300700C9468000C9468000C9468000C944E0274
S11300800C9468000C9468000C9468000C9468004C
S11300900C9468000C9468000C9468000C9468003C
S11300A00C9468000C9468000C94680011241FBE22
S11300B0CFEFDAE0DEBFCDBF21E0A0E0B1E001C0C8
S11300C01D92AE30B207E1F70E94A9020C94E90236
S11300D00C94000085B7806885BF85B7806885BFAC
S11300E0E1E6F0E080E8808381E080830895E0EC3D
S11300F0F0E0808181628083E2ECF0E080818960BD
S113010080830895E0ECF0E0808181628083E2ECFA
S1130110F0E0808189608083E1ECF0E0108210924D
S1130120C3001092C4001092BF001092BE0010923F
S1130130D4001092D0001092D2008081816080831C
S113014080910C0190910D01806490930D01809336
S11301500C0108951092C1001092C0001092C200C8
S113016080910C0190910D018F7B90930D018093F0
S11301700C0108951092800080E880938100109211
S11301808200109290008093910010929200089542
S11301901092020110920601E1E7F0E08081806292
S11301A080831092970010929600109295001092FE
S11301B09400E1E9F0E0808184608083C59A089529
S11301C01092030110920701EFE6F0E08081806253
S11301D080831092870010928600109285001092FE
S11301E08400E1E8F0E0808184608083B59A08951A
S11301F016BC17BC84B5836484BD85B5886085BD91
S1130200089584B18F6D84B985B18F6185B980B348
S1130210806E80BB11BA8AB18C6E8AB95D9A3E9A9F
S11302200E9477000E94BA000E94F8007894089512
S113023087BD85B5846085BD0895EF920F931F93A4
S1130240CF93DF93162FD42FC22F823031F40E9424
S1130250AA002E9A8F98469815C0813051F4809147
S11302600C0190910D0186FF0E9482008F9A46989E
S113027009C080910C0190910D0186FF0E948200BB
S11302808F98469AD23031F40E94AA005F9A8D98D2
S11302908E9815C0D13051F480910C0190910D01CC
S11302A086FF0E9482008D9A8E9809C080910C016D
S11302B090910D0186FF0E9482008D988E9A809104
S11302C00C0190910D0186FF3FC01093D000C093A4
S11302D0D20000930501E0920401112361F00E9411
S11302E0E00080910C0190910D018F7E90930D019F
S11302F080930C0109C080910C0190910D018061E3
S113030090930D0180930C01CC2361F00E94C800EE
S113031080910C0190910D018F7D90930D0180933C
S11303200C0109C080910C0190910D0180629093A1
S11303300D0180930C0180910C0190910D0182605C
S113034090930D0180930C01DF91CF911F910F9138
S1130350EF90089580910C0190910D0184FF11C0DC
S113036080910C0190910D0185FF0DC080910C01CD
S113037090910D018D7F90930D0180930C0181E08C
S1130380089580E0089580E008950F931F93CF931C
S1130390DF93082F10E01016110604F5C0E0D0E03A
S11303A088E090E00E9418012FEF80E792E021504E
S11303B080409040E1F700C0000080E090E00E949F
S11303C018012FEF80E792E0215080409040E1F740
S11303D000C000002196C017D10714F3DF91CF911C
S11303E01F910F9108951F920F920FB60F9211242F
S11303F08F939F93EF93FF938AE18A95F1F700C05F
S113040080910C0190910D0184FD3EC04C993CC03B
S11304108091030181110DC0809107018F5F80934A
S1130420070181E0809303011092850010928400FB
S113043013C0809186009091870090930B01809364
S11304400A01809107018F5F8093070110920301D5
S1130450109285001092840090910701809105010B
S1130460981790F080910C0190910D018061909308
S11304700D0180930C01E1E8F0E08081887F8083A6
S113048010926F001092D000B59AFF91EF919F9156
S11304908F910F900FBE0F901F9018951F920F927F
S11304A00FB60F9211248F939F93EF93FF938AE1DA
S11304B08A95F1F700C080910C0190910D0185FDA2
S11304C03EC037993CC08091020181110DC08091DA
S11304D006018F5F8093060181E0809302011092F0
S11304E095001092940013C080919600909197000B
S11304F09093090180930801809106018F5F809396
S113050006011092020110929500109294009091AD
S1130510060180910401981790F080910C0190914C
S11305200D01806290930D0180930C01E1E9F0E0EC
S11305308081887F8083109271001092D200C59AC6
S1130540FF91EF919F918F910F900FBE0F901F908D
S113055018950E946A000E9401012FEF89E698E134
S1130560215080409040E1F700C0000085E00E94E7
S1130570C5012FEF83ED90E3215080409040E1F7D7
S113058000C000008AEF8093010182EF8093000194
S113059020910101609100010F2EF8ECEF2EF12C57
S11305A0F02D08EC10E041E081E00E941D01C8E05C
S11305B00E94AA018823E1F38BB18C278BB92FEF1A
S11305C081EE94E0215080409040E1F700C00000AB
S10905D0EFCFF894FFCF09
S9030000FC
