:100000000C9456000C9473000C9473000C947300C1
:100010000C9473000C9473000C9473000C94730094
:100020000C9473000C9473000C9473000C94730084
:100030000C9473000C9473000C9473000C94730074
:100040000C9473000C94ED000C9473000C947300EA
:100050000C9473000C94CB000C94D6000C94E1002B
:100060000C9473000C9473000C9473000C94730044
:100070000C9473000C9473000C9473000C94730034
:100080000C9403010C9473000C9473000C94730093
:100090000C9473000C9473000C9473000C94730014
:1000A0000C9473000C9473000C94730011241FBE05
:1000B000CFEFDAE0DEBFCDBF11E0A0E0B1E0ECE2CF
:1000C000F4E002C005900D92A030B107D9F711E01D
:1000D000A0E0B1E001C01D92A830B107E1F70E9495
:1000E000A8010C9414020C94000085B7806885BFA9
:1000F00085B7806885BFE1E6F0E080E8808381E035
:100100008083269A509A859A84B5816084BD84B58F
:10011000826084BD85B5877F85BD84B58F7B84BDB6
:1001200084B5806884BD84B58F7E84BD84B58062CB
:1001300084BD85B5826085BDEEE6F0E08081876094
:1001400080837894529A239A219AE1E7F0E08081A3
:10015000826080838DE093E0909399008093980073
:10016000789425B12A6825B95A9A259AEFE6F0E0E5
:100170002081226020839093890080938800789466
:1001800080B38C7F80BB219A2998EAE7F0E08081D8
:100190008668808308951F920F920FB60F921124E4
:1001A0002E980F900FBE0F901F9018951F920F92D0
:1001B0000FB60F92112458980F900FBE0F901F90FA
:1001C00018951F920F920FB60F9211242E9A589ADB
:1001D0000F900FBE0F901F9018951F920F920FB6A1
:1001E0000F9211248F939F93109285001092840098
:1001F00095B180E2892785B99F918F910F900FBEAD
:100200000F901F9018951F920F920FB60F92112406
:100210008F939F93109295001092940095B18AE06D
:10022000892785B99BB184E089278BB99F918F91EC
:100230000F900FBE0F901F901895813031F4E1E8B8
:10024000F0E08081856080830895E1E8F0E08081BE
:10025000887F80832D980895813031F4E1E9F0E0C2
:100260008081856080830895E1E9F0E08081887F66
:10027000808385B18A6085B95A9A089568BD87BD23
:10028000413011F48D9A08958D980895CF93DF939E
:10029000DC01ECE7F0E080818064808380818E7FE8
:1002A0008083EAE7F0E0808180648083808184FF3E
:1002B000FDCFEAE7F0E080818061808320917800C3
:1002C00030917900932F80E0820F911D11969C93BD
:1002D0008E93CCE7D0E088818164888380818064BC
:1002E0008083808184FFFDCFEAE7F0E08081806138
:1002F00080832091780030917900932F80E0820FE5
:10030000911D13969C938E931297DF91CF91089530
:1003100080910101815F809301018F3F29F0803B33
:1003200018F480EB8093010180EB80930001089525
:1003300080910001815F809300018F3F29F0803B15
:1003400018F480EB8093000180EB80930101089505
:100350000E94750081E00E941D0181E00E942C0135
:100360008FEF93EDA0E381509040A040E1F700C0F3
:10037000000080E00E941D0180E00E942C0129986D
:100380001FEFC4E0D1E0CE010E9446011150D9F721
:10039000809104019091050120910601309107019F
:1003A000821B930B909303018093020180EE809354
:1003B000000180930101C4E0D1E0EE24FF246894A1
:1003C000E1F8EC0EFD1E10EECE010E9446012881E0
:1003D0003981D7018D919C911197281B390B809100
:1003E000020190910301281B390B263031052CF0B6
:1003F0000E9488012B985A9A0FC0BFEF2B3F3B07F2
:100400002CF40E9498012B9A5A9806C01093000170
:10041000109301012B985A9880910101609100017D
:0C04200041E00E943E01D0CFF894FFCFD5
:00000001FF
